{
  "address": "0x2c86D6FBEEBC7619e7956F6D013B1572bFAa51AC",
  "abi": [
    {
      "inputs": [
        {
          "internalType": "address",
          "name": "_token",
          "type": "address"
        },
        {
          "internalType": "address",
          "name": "_uniToken",
          "type": "address"
        }
      ],
      "stateMutability": "nonpayable",
      "type": "constructor"
    },
    {
      "inputs": [
        {
          "internalType": "uint256",
          "name": "_amount",
          "type": "uint256"
        },
        {
          "internalType": "address",
          "name": "_baseToken",
          "type": "address"
        },
        {
          "internalType": "address",
          "name": "_token",
          "type": "address"
        }
      ],
      "name": "deposit",
      "outputs": [
        {
          "internalType": "uint256",
          "name": "",
          "type": "uint256"
        }
      ],
      "stateMutability": "nonpayable",
      "type": "function"
    },
    {
      "inputs": [
        {
          "internalType": "uint256",
          "name": "_amount",
          "type": "uint256"
        },
        {
          "internalType": "address",
          "name": "_baseToken",
          "type": "address"
        },
        {
          "internalType": "address",
          "name": "_token",
          "type": "address"
        }
      ],
      "name": "estimateDeposit",
      "outputs": [
        {
          "internalType": "uint256",
          "name": "",
          "type": "uint256"
        },
        {
          "internalType": "uint256",
          "name": "",
          "type": "uint256"
        }
      ],
      "stateMutability": "view",
      "type": "function"
    },
    {
      "inputs": [
        {
          "internalType": "uint256",
          "name": "_tokenAmount",
          "type": "uint256"
        },
        {
          "internalType": "address",
          "name": "_fromToken",
          "type": "address"
        },
        {
          "internalType": "address",
          "name": "_toToken",
          "type": "address"
        }
      ],
      "name": "estimateTokenAmount",
      "outputs": [
        {
          "internalType": "uint256",
          "name": "",
          "type": "uint256"
        }
      ],
      "stateMutability": "view",
      "type": "function"
    },
    {
      "inputs": [
        {
          "internalType": "uint256",
          "name": "_amount",
          "type": "uint256"
        },
        {
          "internalType": "address",
          "name": "_baseToken",
          "type": "address"
        },
        {
          "internalType": "address",
          "name": "_token",
          "type": "address"
        }
      ],
      "name": "estimateWithdraw",
      "outputs": [
        {
          "internalType": "uint256",
          "name": "",
          "type": "uint256"
        },
        {
          "internalType": "uint256",
          "name": "",
          "type": "uint256"
        }
      ],
      "stateMutability": "view",
      "type": "function"
    },
    {
      "inputs": [
        {
          "internalType": "address",
          "name": "_lp",
          "type": "address"
        }
      ],
      "name": "getLiquidity",
      "outputs": [
        {
          "internalType": "uint256",
          "name": "",
          "type": "uint256"
        }
      ],
      "stateMutability": "view",
      "type": "function"
    },
    {
      "inputs": [
        {
          "internalType": "uint256",
          "name": "_tokenAmount",
          "type": "uint256"
        }
      ],
      "name": "initialize",
      "outputs": [
        {
          "internalType": "uint256",
          "name": "",
          "type": "uint256"
        }
      ],
      "stateMutability": "payable",
      "type": "function"
    },
    {
      "inputs": [
        {
          "internalType": "address",
          "name": "",
          "type": "address"
        }
      ],
      "name": "liquidity",
      "outputs": [
        {
          "internalType": "uint256",
          "name": "",
          "type": "uint256"
        }
      ],
      "stateMutability": "view",
      "type": "function"
    },
    {
      "inputs": [],
      "name": "lockedLiquidity",
      "outputs": [
        {
          "internalType": "uint256",
          "name": "",
          "type": "uint256"
        }
      ],
      "stateMutability": "view",
      "type": "function"
    },
    {
      "inputs": [
        {
          "internalType": "uint256",
          "name": "_inputAmount",
          "type": "uint256"
        },
        {
          "internalType": "uint256",
          "name": "_fromReserve",
          "type": "uint256"
        },
        {
          "internalType": "uint256",
          "name": "_toReserve",
          "type": "uint256"
        }
      ],
      "name": "price",
      "outputs": [
        {
          "internalType": "uint256",
          "name": "",
          "type": "uint256"
        }
      ],
      "stateMutability": "pure",
      "type": "function"
    },
    {
      "inputs": [
        {
          "internalType": "uint256",
          "name": "_tokenAmount",
          "type": "uint256"
        },
        {
          "internalType": "address",
          "name": "_fromToken",
          "type": "address"
        },
        {
          "internalType": "address",
          "name": "_toToken",
          "type": "address"
        }
      ],
      "name": "swap",
      "outputs": [
        {
          "internalType": "uint256",
          "name": "",
          "type": "uint256"
        }
      ],
      "stateMutability": "nonpayable",
      "type": "function"
    },
    {
      "inputs": [
        {
          "internalType": "uint256",
          "name": "_liquidityAmount",
          "type": "uint256"
        },
        {
          "internalType": "address",
          "name": "_baseToken",
          "type": "address"
        },
        {
          "internalType": "address",
          "name": "_token",
          "type": "address"
        }
      ],
      "name": "withdraw",
      "outputs": [
        {
          "internalType": "uint256",
          "name": "",
          "type": "uint256"
        },
        {
          "internalType": "uint256",
          "name": "",
          "type": "uint256"
        }
      ],
      "stateMutability": "nonpayable",
      "type": "function"
    }
  ],
  "transactionHash": "0x560d1b2aff282c4c9fcd08efedac9456e1fdac3be6a059178f62253c4c055335",
  "args": [
    "0x615E31ac25764DCcBb402300f4aEA4a805B39351",
    "0xAbFF10943d9b777564A1521fA87B1783EA387508"
  ],
  "numDeployments": 5,
  "solcInputHash": "344fd4b49017cc4432d08d6d4e225dc9",
  "bytecode": "0x60806040523480156200001157600080fd5b50604051620026bd380380620026bd8339818101604052810190620000379190620000d7565b816000806101000a81548173ffffffffffffffffffffffffffffffffffffffff021916908373ffffffffffffffffffffffffffffffffffffffff16021790555080600160006101000a81548173ffffffffffffffffffffffffffffffffffffffff021916908373ffffffffffffffffffffffffffffffffffffffff160217905550505062000166565b600081519050620000d1816200014c565b92915050565b60008060408385031215620000eb57600080fd5b6000620000fb85828601620000c0565b92505060206200010e85828601620000c0565b9150509250929050565b600062000125826200012c565b9050919050565b600073ffffffffffffffffffffffffffffffffffffffff82169050919050565b620001578162000118565b81146200016357600080fd5b50565b61254780620001766000396000f3fe60806040526004361061009c5760003560e01c8063905869491161006457806390586949146101d3578063a747b93b14610211578063b43982441461024e578063b460af9414610279578063b8c876b1146102b7578063fe4b84df146102f45761009c565b806302969cda146100a157806303b2cc68146100df5780632071a9f41461011c5780632b7f0923146101595780632e2d298414610196575b600080fd5b3480156100ad57600080fd5b506100c860048036038101906100c39190611b94565b610324565b6040516100d692919061209c565b60405180910390f35b3480156100eb57600080fd5b5061010660048036038101906101019190611b94565b610499565b6040516101139190612081565b60405180910390f35b34801561012857600080fd5b50610143600480360381019061013e9190611be3565b610654565b6040516101509190612081565b60405180910390f35b34801561016557600080fd5b50610180600480360381019061017b9190611b94565b61069b565b60405161018d9190612081565b60405180910390f35b3480156101a257600080fd5b506101bd60048036038101906101b89190611b94565b610a42565b6040516101ca9190612081565b60405180910390f35b3480156101df57600080fd5b506101fa60048036038101906101f59190611b94565b610dc6565b60405161020892919061209c565b60405180910390f35b34801561021d57600080fd5b5061023860048036038101906102339190611af0565b610f45565b6040516102459190612081565b60405180910390f35b34801561025a57600080fd5b50610263610f8e565b6040516102709190612081565b60405180910390f35b34801561028557600080fd5b506102a0600480360381019061029b9190611b94565b610f94565b6040516102ae92919061209c565b60405180910390f35b3480156102c357600080fd5b506102de60048036038101906102d99190611af0565b611392565b6040516102eb9190612081565b60405180910390f35b61030e60048036038101906103099190611b42565b6113aa565b60405161031b9190612081565b60405180910390f35b6000806000849050600084905060008273ffffffffffffffffffffffffffffffffffffffff166370a08231306040518263ffffffff1660e01b815260040161036c9190611e2d565b60206040518083038186803b15801561038457600080fd5b505afa158015610398573d6000803e3d6000fd5b505050506040513d601f19601f820116820180604052508101906103bc9190611b6b565b905060008273ffffffffffffffffffffffffffffffffffffffff166370a08231306040518263ffffffff1660e01b81526004016103f99190611e2d565b60206040518083038186803b15801561041157600080fd5b505afa158015610425573d6000803e3d6000fd5b505050506040513d601f19601f820116820180604052508101906104499190611b6b565b90506000600254838b61045c9190612168565b6104669190612137565b90506000600254838c6104799190612168565b6104839190612137565b9050818197509750505050505050935093915050565b600080839050600083905060008273ffffffffffffffffffffffffffffffffffffffff166370a08231306040518263ffffffff1660e01b81526004016104df9190611e2d565b60206040518083038186803b1580156104f757600080fd5b505afa15801561050b573d6000803e3d6000fd5b505050506040513d601f19601f8201168201806040525081019061052f9190611b6b565b905060008273ffffffffffffffffffffffffffffffffffffffff166370a08231306040518263ffffffff1660e01b815260040161056c9190611e2d565b60206040518083038186803b15801561058457600080fd5b505afa158015610598573d6000803e3d6000fd5b505050506040513d601f19601f820116820180604052508101906105bc9190611b6b565b90506105fd6040518060400160405280600b81526020017f66726f6d52657365727665000000000000000000000000000000000000000000815250836119d7565b61063c6040518060400160405280600981526020017f746f526573657276650000000000000000000000000000000000000000000000815250826119d7565b610647888383610654565b9450505050509392505050565b6000806103e585846106669190612168565b6106709190612168565b905060006103e8856106829190612168565b905080826106909190612137565b925050509392505050565b600080839050600083905060008273ffffffffffffffffffffffffffffffffffffffff166370a08231306040518263ffffffff1660e01b81526004016106e19190611e2d565b60206040518083038186803b1580156106f957600080fd5b505afa15801561070d573d6000803e3d6000fd5b505050506040513d601f19601f820116820180604052508101906107319190611b6b565b905060008273ffffffffffffffffffffffffffffffffffffffff166370a08231306040518263ffffffff1660e01b815260040161076e9190611e2d565b60206040518083038186803b15801561078657600080fd5b505afa15801561079a573d6000803e3d6000fd5b505050506040513d601f19601f820116820180604052508101906107be9190611b6b565b905060006107cd898484610654565b9050808573ffffffffffffffffffffffffffffffffffffffff166370a08231306040518263ffffffff1660e01b81526004016108099190611e2d565b60206040518083038186803b15801561082157600080fd5b505afa158015610835573d6000803e3d6000fd5b505050506040513d601f19601f820116820180604052508101906108599190611b6b565b11610899576040517f08c379a000000000000000000000000000000000000000000000000000000000815260040161089090612021565b60405180910390fd5b8373ffffffffffffffffffffffffffffffffffffffff1663a9059cbb33836040518363ffffffff1660e01b81526004016108d4929190611ea8565b602060405180830381600087803b1580156108ee57600080fd5b505af1158015610902573d6000803e3d6000fd5b505050506040513d601f19601f820116820180604052508101906109269190611b19565b610965576040517f08c379a000000000000000000000000000000000000000000000000000000000815260040161095c90611f21565b60405180910390fd5b8473ffffffffffffffffffffffffffffffffffffffff166323b872dd33308c6040518463ffffffff1660e01b81526004016109a293929190611e71565b602060405180830381600087803b1580156109bc57600080fd5b505af11580156109d0573d6000803e3d6000fd5b505050506040513d601f19601f820116820180604052508101906109f49190611b19565b610a33576040517f08c379a0000000000000000000000000000000000000000000000000000000008152600401610a2a90612061565b60405180910390fd5b80955050505050509392505050565b600080839050600083905060008273ffffffffffffffffffffffffffffffffffffffff166370a08231306040518263ffffffff1660e01b8152600401610a889190611e2d565b60206040518083038186803b158015610aa057600080fd5b505afa158015610ab4573d6000803e3d6000fd5b505050506040513d601f19601f82011682018060405250810190610ad89190611b6b565b905060008273ffffffffffffffffffffffffffffffffffffffff166370a08231306040518263ffffffff1660e01b8152600401610b159190611e2d565b60206040518083038186803b158015610b2d57600080fd5b505afa158015610b41573d6000803e3d6000fd5b505050506040513d601f19601f82011682018060405250810190610b659190611b6b565b90506000600183838b610b789190612168565b610b829190612137565b610b8c91906120e1565b90506000836002548b610b9f9190612168565b610ba99190612137565b905080600360003373ffffffffffffffffffffffffffffffffffffffff1673ffffffffffffffffffffffffffffffffffffffff1681526020019081526020016000206000828254610bfa91906120e1565b925050819055508060026000828254610c1391906120e1565b925050819055508573ffffffffffffffffffffffffffffffffffffffff166323b872dd33308d6040518463ffffffff1660e01b8152600401610c5793929190611e71565b602060405180830381600087803b158015610c7157600080fd5b505af1158015610c85573d6000803e3d6000fd5b505050506040513d601f19601f82011682018060405250810190610ca99190611b19565b610ce8576040517f08c379a0000000000000000000000000000000000000000000000000000000008152600401610cdf90611fc1565b60405180910390fd5b8473ffffffffffffffffffffffffffffffffffffffff166323b872dd3330856040518463ffffffff1660e01b8152600401610d2593929190611e71565b602060405180830381600087803b158015610d3f57600080fd5b505af1158015610d53573d6000803e3d6000fd5b505050506040513d601f19601f82011682018060405250810190610d779190611b19565b610db6576040517f08c379a0000000000000000000000000000000000000000000000000000000008152600401610dad90611fa1565b60405180910390fd5b8096505050505050509392505050565b6000806000849050600084905060008273ffffffffffffffffffffffffffffffffffffffff166370a08231306040518263ffffffff1660e01b8152600401610e0e9190611e2d565b60206040518083038186803b158015610e2657600080fd5b505afa158015610e3a573d6000803e3d6000fd5b505050506040513d601f19601f82011682018060405250810190610e5e9190611b6b565b905060008273ffffffffffffffffffffffffffffffffffffffff166370a08231306040518263ffffffff1660e01b8152600401610e9b9190611e2d565b60206040518083038186803b158015610eb357600080fd5b505afa158015610ec7573d6000803e3d6000fd5b505050506040513d601f19601f82011682018060405250810190610eeb9190611b6b565b90506000600183838c610efe9190612168565b610f089190612137565b610f1291906120e1565b90506000836002548c610f259190612168565b610f2f9190612137565b9050818197509750505050505050935093915050565b6000600360008373ffffffffffffffffffffffffffffffffffffffff1673ffffffffffffffffffffffffffffffffffffffff168152602001908152602001600020549050919050565b60025481565b6000806000849050600084905060008273ffffffffffffffffffffffffffffffffffffffff166370a08231306040518263ffffffff1660e01b8152600401610fdc9190611e2d565b60206040518083038186803b158015610ff457600080fd5b505afa158015611008573d6000803e3d6000fd5b505050506040513d601f19601f8201168201806040525081019061102c9190611b6b565b905060008273ffffffffffffffffffffffffffffffffffffffff166370a08231306040518263ffffffff1660e01b81526004016110699190611e2d565b60206040518083038186803b15801561108157600080fd5b505afa158015611095573d6000803e3d6000fd5b505050506040513d601f19601f820116820180604052508101906110b99190611b6b565b90506000600254838b6110cc9190612168565b6110d69190612137565b90506000600254838c6110e99190612168565b6110f39190612137565b90508a600360003373ffffffffffffffffffffffffffffffffffffffff1673ffffffffffffffffffffffffffffffffffffffff168152602001908152602001600020541015611177576040517f08c379a000000000000000000000000000000000000000000000000000000000815260040161116e90611f61565b60405180910390fd5b8a600360003373ffffffffffffffffffffffffffffffffffffffff1673ffffffffffffffffffffffffffffffffffffffff16815260200190815260200160002060008282546111c691906121c2565b925050819055508a600260008282546111df91906121c2565b925050819055508573ffffffffffffffffffffffffffffffffffffffff1663a9059cbb33846040518363ffffffff1660e01b8152600401611221929190611ea8565b602060405180830381600087803b15801561123b57600080fd5b505af115801561124f573d6000803e3d6000fd5b505050506040513d601f19601f820116820180604052508101906112739190611b19565b6112b2576040517f08c379a00000000000000000000000000000000000000000000000000000000081526004016112a990611fc1565b60405180910390fd5b8473ffffffffffffffffffffffffffffffffffffffff1663a9059cbb33836040518363ffffffff1660e01b81526004016112ed929190611ea8565b602060405180830381600087803b15801561130757600080fd5b505af115801561131b573d6000803e3d6000fd5b505050506040513d601f19601f8201168201806040525081019061133f9190611b19565b61137e576040517f08c379a000000000000000000000000000000000000000000000000000000000815260040161137590611fa1565b60405180910390fd5b818197509750505050505050935093915050565b60036020528060005260406000206000915090505481565b600080600254146113f0576040517f08c379a00000000000000000000000000000000000000000000000000000000081526004016113e790611f41565b60405180910390fd5b8160008054906101000a900473ffffffffffffffffffffffffffffffffffffffff1673ffffffffffffffffffffffffffffffffffffffff166370a08231336040518263ffffffff1660e01b815260040161144a9190611e2d565b60206040518083038186803b15801561146257600080fd5b505afa158015611476573d6000803e3d6000fd5b505050506040513d601f19601f8201168201806040525081019061149a9190611b6b565b10156114db576040517f08c379a00000000000000000000000000000000000000000000000000000000081526004016114d290611f81565b60405180910390fd5b8160008054906101000a900473ffffffffffffffffffffffffffffffffffffffff1673ffffffffffffffffffffffffffffffffffffffff166370a08231336040518263ffffffff1660e01b81526004016115359190611e2d565b60206040518083038186803b15801561154d57600080fd5b505afa158015611561573d6000803e3d6000fd5b505050506040513d601f19601f820116820180604052508101906115859190611b6b565b10156115c6576040517f08c379a00000000000000000000000000000000000000000000000000000000081526004016115bd90611fe1565b60405180910390fd5b8160008054906101000a900473ffffffffffffffffffffffffffffffffffffffff1673ffffffffffffffffffffffffffffffffffffffff1663dd62ed3e33306040518363ffffffff1660e01b8152600401611622929190611e48565b60206040518083038186803b15801561163a57600080fd5b505afa15801561164e573d6000803e3d6000fd5b505050506040513d601f19601f820116820180604052508101906116729190611b6b565b10156116b3576040517f08c379a00000000000000000000000000000000000000000000000000000000081526004016116aa90611f01565b60405180910390fd5b81600160009054906101000a900473ffffffffffffffffffffffffffffffffffffffff1673ffffffffffffffffffffffffffffffffffffffff1663dd62ed3e33306040518363ffffffff1660e01b8152600401611711929190611e48565b60206040518083038186803b15801561172957600080fd5b505afa15801561173d573d6000803e3d6000fd5b505050506040513d601f19601f820116820180604052508101906117619190611b6b565b10156117a2576040517f08c379a000000000000000000000000000000000000000000000000000000000815260040161179990612041565b60405180910390fd5b81600281905550600254600360003373ffffffffffffffffffffffffffffffffffffffff1673ffffffffffffffffffffffffffffffffffffffff1681526020019081526020016000208190555060008054906101000a900473ffffffffffffffffffffffffffffffffffffffff1673ffffffffffffffffffffffffffffffffffffffff166323b872dd3330856040518463ffffffff1660e01b815260040161184c93929190611e71565b602060405180830381600087803b15801561186657600080fd5b505af115801561187a573d6000803e3d6000fd5b505050506040513d601f19601f8201168201806040525081019061189e9190611b19565b6118dd576040517f08c379a00000000000000000000000000000000000000000000000000000000081526004016118d490612001565b60405180910390fd5b600160009054906101000a900473ffffffffffffffffffffffffffffffffffffffff1673ffffffffffffffffffffffffffffffffffffffff166323b872dd3330856040518463ffffffff1660e01b815260040161193c93929190611e71565b602060405180830381600087803b15801561195657600080fd5b505af115801561196a573d6000803e3d6000fd5b505050506040513d601f19601f8201168201806040525081019061198e9190611b19565b6119cd576040517f08c379a00000000000000000000000000000000000000000000000000000000081526004016119c490612001565b60405180910390fd5b6002549050919050565b611a6f82826040516024016119ed929190611ed1565b6040516020818303038152906040527f9710a9d0000000000000000000000000000000000000000000000000000000007bffffffffffffffffffffffffffffffffffffffffffffffffffffffff19166020820180517bffffffffffffffffffffffffffffffffffffffffffffffffffffffff8381831617835250505050611a73565b5050565b60008151905060006a636f6e736f6c652e6c6f679050602083016000808483855afa5050505050565b600081359050611aab816124cc565b92915050565b600081519050611ac0816124e3565b92915050565b600081359050611ad5816124fa565b92915050565b600081519050611aea816124fa565b92915050565b600060208284031215611b0257600080fd5b6000611b1084828501611a9c565b91505092915050565b600060208284031215611b2b57600080fd5b6000611b3984828501611ab1565b91505092915050565b600060208284031215611b5457600080fd5b6000611b6284828501611ac6565b91505092915050565b600060208284031215611b7d57600080fd5b6000611b8b84828501611adb565b91505092915050565b600080600060608486031215611ba957600080fd5b6000611bb786828701611ac6565b9350506020611bc886828701611a9c565b9250506040611bd986828701611a9c565b9150509250925092565b600080600060608486031215611bf857600080fd5b6000611c0686828701611ac6565b9350506020611c1786828701611ac6565b9250506040611c2886828701611ac6565b9150509250925092565b611c3b816121f6565b82525050565b6000611c4c826120c5565b611c5681856120d0565b9350611c6681856020860161223e565b611c6f816122cf565b840191505092915050565b6000611c876018836120d0565b9150611c92826122e0565b602082019050919050565b6000611caa601c836120d0565b9150611cb582612309565b602082019050919050565b6000611ccd6018836120d0565b9150611cd882612332565b602082019050919050565b6000611cf0601d836120d0565b9150611cfb8261235b565b602082019050919050565b6000611d13601d836120d0565b9150611d1e82612384565b602082019050919050565b6000611d366014836120d0565b9150611d41826123ad565b602082019050919050565b6000611d596019836120d0565b9150611d64826123d6565b602082019050919050565b6000611d7c6020836120d0565b9150611d87826123ff565b602082019050919050565b6000611d9f6019836120d0565b9150611daa82612428565b602082019050919050565b6000611dc26014836120d0565b9150611dcd82612451565b602082019050919050565b6000611de5601b836120d0565b9150611df08261247a565b602082019050919050565b6000611e08601c836120d0565b9150611e13826124a3565b602082019050919050565b611e2781612234565b82525050565b6000602082019050611e426000830184611c32565b92915050565b6000604082019050611e5d6000830185611c32565b611e6a6020830184611c32565b9392505050565b6000606082019050611e866000830186611c32565b611e936020830185611c32565b611ea06040830184611e1e565b949350505050565b6000604082019050611ebd6000830185611c32565b611eca6020830184611e1e565b9392505050565b60006040820190508181036000830152611eeb8185611c41565b9050611efa6020830184611e1e565b9392505050565b60006020820190508181036000830152611f1a81611c7a565b9050919050565b60006020820190508181036000830152611f3a81611c9d565b9050919050565b60006020820190508181036000830152611f5a81611cc0565b9050919050565b60006020820190508181036000830152611f7a81611ce3565b9050919050565b60006020820190508181036000830152611f9a81611d06565b9050919050565b60006020820190508181036000830152611fba81611d29565b9050919050565b60006020820190508181036000830152611fda81611d4c565b9050919050565b60006020820190508181036000830152611ffa81611d6f565b9050919050565b6000602082019050818103600083015261201a81611d92565b9050919050565b6000602082019050818103600083015261203a81611db5565b9050919050565b6000602082019050818103600083015261205a81611dd8565b9050919050565b6000602082019050818103600083015261207a81611dfb565b9050919050565b60006020820190506120966000830184611e1e565b92915050565b60006040820190506120b16000830185611e1e565b6120be6020830184611e1e565b9392505050565b600081519050919050565b600082825260208201905092915050565b60006120ec82612234565b91506120f783612234565b9250827fffffffffffffffffffffffffffffffffffffffffffffffffffffffffffffffff0382111561212c5761212b612271565b5b828201905092915050565b600061214282612234565b915061214d83612234565b92508261215d5761215c6122a0565b5b828204905092915050565b600061217382612234565b915061217e83612234565b9250817fffffffffffffffffffffffffffffffffffffffffffffffffffffffffffffffff04831182151516156121b7576121b6612271565b5b828202905092915050565b60006121cd82612234565b91506121d883612234565b9250828210156121eb576121ea612271565b5b828203905092915050565b600061220182612214565b9050919050565b60008115159050919050565b600073ffffffffffffffffffffffffffffffffffffffff82169050919050565b6000819050919050565b60005b8381101561225c578082015181840152602081019050612241565b8381111561226b576000848401525b50505050565b7f4e487b7100000000000000000000000000000000000000000000000000000000600052601160045260246000fd5b7f4e487b7100000000000000000000000000000000000000000000000000000000600052601260045260246000fd5b6000601f19601f8301169050919050565b7f546f6b656e20616c6c6f77616e636520746f6f206c6f772e0000000000000000600082015250565b7f4572726f72207472616e7366657272696e672074686520746f6b656e00000000600082015250565b7f44455820616c726561647920696e697469616c697a65642e0000000000000000600082015250565b7f4e6f7420656e6f7567682070726f7669646564206c6971756964697479000000600082015250565b7f546f6b656e2062616c616e6365206e6f742073756666696369656e742e000000600082015250565b7f546f6b656e207472616e73666572204572726f72000000000000000000000000600082015250565b7f4261736520746f6b656e207472616e73666572204572726f7200000000000000600082015250565b7f556e69546f6b656e2062616c616e6365206e6f742073756666696369656e742e600082015250565b7f4572726f72207472616e7366657272696e6720746f6b656e7300000000000000600082015250565b7f4e6f7420656e6f756768206c6971756964697479000000000000000000000000600082015250565b7f556e69546f6b656e20616c6c6f77616e636520746f6f206c6f772e0000000000600082015250565b7f4572726f72207472616e66657272696e672074686520746f6b656e2e00000000600082015250565b6124d5816121f6565b81146124e057600080fd5b50565b6124ec81612208565b81146124f757600080fd5b50565b61250381612234565b811461250e57600080fd5b5056fea2646970667358221220c7643e0f25978f3c937bd712d3c4d92ba7fa84f1c7522c917f5ace5ac8400cc864736f6c63430008040033",
  "devdoc": {
    "kind": "dev",
    "methods": {},
    "version": 1
  },
  "userdoc": {
    "kind": "user",
    "methods": {},
    "version": 1
  },
  "storageLayout": {
    "storage": [
      {
        "astId": 717,
        "contract": "contracts/DEX.sol:DEX",
        "label": "token",
        "offset": 0,
        "slot": "0",
        "type": "t_contract(IERC20)663"
      },
      {
        "astId": 720,
        "contract": "contracts/DEX.sol:DEX",
        "label": "uniToken",
        "offset": 0,
        "slot": "1",
        "type": "t_contract(IERC20)663"
      },
      {
        "astId": 722,
        "contract": "contracts/DEX.sol:DEX",
        "label": "lockedLiquidity",
        "offset": 0,
        "slot": "2",
        "type": "t_uint256"
      },
      {
        "astId": 726,
        "contract": "contracts/DEX.sol:DEX",
        "label": "liquidity",
        "offset": 0,
        "slot": "3",
        "type": "t_mapping(t_address,t_uint256)"
      }
    ],
    "types": {
      "t_address": {
        "encoding": "inplace",
        "label": "address",
        "numberOfBytes": "20"
      },
      "t_contract(IERC20)663": {
        "encoding": "inplace",
        "label": "contract IERC20",
        "numberOfBytes": "20"
      },
      "t_mapping(t_address,t_uint256)": {
        "encoding": "mapping",
        "key": "t_address",
        "label": "mapping(address => uint256)",
        "numberOfBytes": "32",
        "value": "t_uint256"
      },
      "t_uint256": {
        "encoding": "inplace",
        "label": "uint256",
        "numberOfBytes": "32"
      }
    }
  }
}